:020000040800F2
:10000000005000200D010008ED370008F937000806
:100010000138000809380008113800080000000005
:100020000000000000000000000000001938000877
:10003000253800080000000031380008E101000800
:100040009901000899010008990100089901000828
:100050009901000899010008990100089901000818
:100060009901000899010008990100089901000808
:1000700099010008990100089901000899010008F8
:1000800099010008990100089901000899010008E8
:100090003D380008990100089901000885430008CF
:1000A00099010008990100089901000899010008C8
:1000B0002D340008990100089901000899010008F1
:1000C00099010008990100089901000899010008A8
:1000D0009901000899010008990100089901000898
:1000E000990100089901000899010008000000002A
:1000F0000000000000000000000000000000000000
:1001000000000000000000005FF808F180B584B036
:1001100000AF0D4BBB600D4B7B60BB683B6004E0E8
:100120003B681A1D3A6000221A607A683B689A425E
:10013000F6D805F067FB03F08FF9F86005F098FB3F
:10014000F86805F0B3FB00BF800900206C0F0020A9
:1001500080B584B000AF0D4BFB600D4BBB600D4B09
:100160007B60BB683B6007E03B681A1D3A60FA6839
:10017000111DF96012681A607A683B689A42F3D8D8
:1001800005F09AFB1037BD4680BD00BF6CB7000874
:10019000000000208009002080B400AFFEE700BF0F
:1001A00080B400AFFEE700BF80B400AFFEE700BF41
:1001B00080B400AFFEE700BF80B400AFFEE700BF31
:1001C00080B400AFFEE700BF80B400AFFEE700BF21
:1001D00080B400AFFEE700BF80B400AFFEE700BF11
:0801E00080B400AFFEE700BF90
:0401E80051010008B9
:1001F00080B584B000AF0346FB710423184601218B
:1002000005F038F90223BB811023FB730323BB7372
:10021000FA79064B53F8222007F10C0310461946D1
:1002200004F0D0FC1037BD4680BD00BF00000020A8
:1002300080B483B000AF0346FB71FA79074B53F8E3
:100240002230F979054A52F82120D16802224A4029
:10025000DA600C37BD465DF8047B70470000002073
:1002600080B400AF62B6BD465DF8047B704700BF46
:1002700080B400AF72B6BD465DF8047B704700BF26
:1002800080B588B000AF786039600920012105F0A1
:10029000F1F87A68254B9A4208D14FF48000012189
:1002A00005F006F94FF44063BB810BE00220012109
:1002B00004F060FD4FF40010012105F0F9F84FF44F
:1002C0004073BB810323BB731C23FB7307F10C0337
:1002D0001748194604F076FC0023BB824BF6FF73E7
:1002E000FB8200233B834FF480637B834FF4804386
:1002F000BB833B683B6107F110037868194604F043
:10030000E7FD7868012104F0A5FE7A68094B9A425E
:1003100002D1084800F010F87A68044B9A4202D1E2
:10032000024800F009F82037BD4680BD0058004063
:10033000000C01400054004080B582B000AF7860EE
:100340000120012105F078F8264B00225A60254B48
:1003500010229A60234B4FF6FF72DA60214B002285
:100360001A61204B80225A611E4B00229A611D4B5C
:100370000022DA611B4B00221A621A4B4FF44052E2
:100380005A62184B00229A627A68174B9A4210D12F
:10039000144B164A1A60164804F01AFA1448114908
:1003A00004F0D2FA134804F013FA12480D4904F08D
:1003B000CBFA7A68104B9A4210D10A4B0F4A1A6056
:1003C0000F4804F005FA0E48064904F0BDFA0D483E
:1003D00004F0FEF90B48034904F0B6FA0837BD46AD
:1003E00080BD00BFC80C00200058004010580040DD
:1003F00044000240580002400054004010540040A5
:100400006C0002408000024080B584B000AFF8600C
:10041000B9607A603B603B68002B2CD1BA682D4BE9
:100420005A602C4B10229A602A4B7A68DA60FA687C
:10043000294B9A420FD1274B284A1A60284800219D
:1004400004F0C0FA2648234904F07EFA244801212A
:1004500004F0B8FA3BE01F4B224A1A602248002100
:1004600004F0B0FA20481B4904F06EFA1E4801213E
:1004700004F0A8FA2BE0BA68164B5A60154B00221C
:100480009A60144B7A68DA60FA68134B9A420FD17B
:10049000104B124A1A601548002104F093FA1348D1
:1004A0000C4904F051FA1148012104F08BFA0EE0D6
:1004B000084B0C4A1A600E48002104F083FA0C48DD
:1004C000044904F041FA0A48012104F07BFA10378C
:1004D000BD4680BDC80C00200058004010580040A8
:1004E00044000240105400406C000240580002409A
:1004F0008000024080B586B000AFF8607A600A469E
:10050000FA72BB7200237B6100233B61FB689B880E
:100510009BB243F480739AB2FB689A8097F82030BC
:10052000012B03D9BB7A63F07F03BB72FFF7A0FEF8
:1005300000BFF8684FF4003104F08AFE0346002B38
:10054000F7D1F868012104F0C5FD00BFF8685349F0
:1005500004F04EFE0346002BF8D0FB7AF8681946EB
:10056000002204F027FE00BFF8684D4904F040FE69
:100570000346002BF8D0F868012104F06BFDBB7A2C
:10058000F868194604F006FE00BFF868454904F013
:100590002FFE0346002BF8D097F82030F8687968D2
:1005A0001A460123FFF730FFFB689B889BB243F498
:1005B00080539AB2FB689A80F868012104F06AFDC2
:1005C0004FF6FF733B61F868012104F083FD05E0FD
:1005D0003B695A1E3A61002B00D15CE0F8682F4954
:1005E00004F006FE0346002BF2D04FF6FF733B618A
:1005F000FB7AF8681946012204F0DCFD05E03B694E
:100600005A1E3A61002B00D145E0F868264904F0F3
:10061000EFFD0346002BF2D0FB681B8B9BB27B6186
:10062000FA68224B9A4210D100BF4FF4003004F018
:10063000E5F90346002BF8D01D48002104F0C2F96B
:100640004FF4003004F004FA0FE000BF4FF00070E8
:1006500004F0D4F90346002BF8D01648002104F02A
:10066000B1F94FF0007004F0F3F9F868002104F0DC
:1006700071FDF868012104F04DFD00BFFB681B8887
:100680009BB203F40073002BF8D1F868012104F049
:1006900061FDFFF7E5FD1837BD4680BD0100030091
:1006A0008200070084000700020003000058004099
:1006B000580002408000024080B586B000AFF8606C
:1006C0007A600A46FA72BB7200237B6100233B61A9
:1006D00097F82030012B03D9BB7A63F07F03BB72FC
:1006E000454BBA7A1A7097F82030444879681A4610
:1006F00006F0BEFAFB689B889BB243F480739AB203
:10070000FB689A804FF6FF733B6197F82030013306
:10071000F86839491A460023FFF776FEF868012188
:1007200004F0B8FCF868012104F0D4FC05E03B6952
:100730005A1E3A61002B00D15AE0F868304904F0A3
:1007400057FD0346002BF2D04FF6FF733B61FB7A57
:10075000F8681946002204F02DFD05E03B695A1E99
:100760003A61002B00D143E0F868264904F040FDCF
:100770000346002BF2D0FB681B8B9BB27B61FA68AF
:10078000214B9A4210D100BF4FF4005004F036F9CB
:100790000346002BF8D01D48002104F013F94FF454
:1007A000005004F055F90FE000BF4FF4001004F0C2
:1007B00025F90346002BF8D01548002104F002F972
:1007C0004FF4001004F044F900BFF868114904F038
:1007D0000FFD0346002BF8D0F868012104F09AFCC5
:1007E00000BFFB681B889BB203F40073002BF8D199
:1007F0001837BD4680BD00BF800900208109002058
:10080000010003008200070000580040440002403D
:100810006C0002408400070080B400AF62B6BD46A1
:100820005DF8047B704700BF80B400AF72B6BD4670
:100830005DF8047B704700BF80B588B000AF78607A
:100840000120012104F016FE7A68464B9A420CD131
:100850004FF48040012104F02BFE0820012104F018
:1008600009FE4FF420433B810AE04FF48050012100
:1008700004F000FE0420012104F0FCFDA0233B81D4
:100880001823FB720323BB727A68364B9A4209D154
:1008900007F108033448194604F094F94FF48043F3
:1008A0003B8107E007F108033048194604F08AF954
:1008B00040233B810423FB727A682A4B9A4206D17B
:1008C00007F108032848194604F07CF905E007F110
:1008D00008032648194604F075F90023BB814FF43C
:1008E0008273FB8100233B8200237B820023BB8237
:1008F0004FF40073FB8208233B8300237B83072391
:10090000BB8307F10C037868194604F0EFFD102350
:10091000FB720323BB727A68124B9A420ED14FF4DA
:1009200080533B8107F108030F48194604F04AF948
:100930000D484FF4805104F001FA0BE010233B8185
:1009400007F108030948194604F03CF9074810214B
:1009500004F0F4F97868012104F00CFE2037BD465C
:1009600080BD00BF00380040000C0140000801407D
:1009700080B582B000AF78600B46FB70FFF754FF84
:1009800000BF7868022104F031FE0346002BF8D046
:10099000FB789BB27868194604F00CFE00BF7868BB
:1009A000012104F023FE0346002BF8D0FFF734FFAB
:1009B000786804F00DFE0346DBB218460837BD46E2
:1009C00080BD00BF80B584B000AFF860B960FA7137
:1009D000BB71FB7903F03F03FB71BB79012B03D99A
:1009E000FB7943F04003FB71FA68194B9A4205D139
:1009F00018484FF4805104F0AFF903E01648102175
:100A000004F0AAF9FB79F8681946FFF7B1FF0BE08B
:100A1000BB681B78F8681946FFF7AAFFBB79013B52
:100A2000BB71BB680133BB60BB79002BF0D1FA68A6
:100A3000074B9A4205D107484FF4805104F07EF9E4
:100A400003E00548102104F079F91037BD4680BD58
:100A500000380040000C01400008014080B586B01D
:100A600000AFF860B9607A6007200721002200F02B
:100A7000D5F902467B4B1A6007200721022200F0BD
:100A8000CDF90246784B1A6007200721002200F0BA
:100A9000C5F90246754B1A6007200721002200F0B5
:100AA000BDF90246724B1A6003200321002200F0B8
:100AB000B5F902466F4B1A6003200321002200F0B3
:100AC000ADF902466C4B1A6007200321002200F0AA
:100AD000A5F90246694B1A6007200321002200F0A5
:100AE0009DF90246664B1A600023FB821EE05D4BB7
:100AF0001B685A68B7F916309B0013441A68B7F997
:100B000016309B0013445F4A1A60584B1B685A68A2
:100B1000B7F916309B0013441A68B7F916309B00DA
:100B20001344594A1A60FB8A0133FB82B7F9163025
:100B3000062BDCDD0023BB8222E04E4B1B685A688B
:100B4000B7F914309B0013441A68B7F914309B00AE
:100B50001344FA68D2F88C201A60474B1B685A6815
:100B6000B7F914309B0013441A68B7F914309B008E
:100B70001344FA68D2F890201A60BB8A0133BB8212
:100B8000B7F91430022BD8DD03200721002200F032
:100B900045F902463D4B1A6003200721002200F070
:100BA0003DF902463A4B1A603A4B4FF07E521A60BA
:100BB00001237B8209E0B7F91220364B4FF0000188
:100BC00043F822107B8A01337B82B7F91230062B5F
:100BD000F1DDFB6800221A60FB684FF000029A60AA
:100BE000FB684FF00002DA60FB684FF000021A6108
:100BF000FB684FF000025A61FB684FF000029A61F7
:100C0000FB684FF00002DA61FB684FF000021A62E5
:100C1000FB684FF000025A62FB684FF000029A62D4
:100C2000BB684FF000021A60BB684FF000025A60C8
:100C3000BB684FF000029A60FB685B6818464FF093
:100C4000804105F0CFFC03461A46134B1A60134B44
:100C50004FF000021A60124B4FF000021A6000239E
:100C60003B825CE0380D00203C0D0020400D002050
:100C70000C0D0020140D0020180D0020100D002078
:100C8000080D0020CDCCCC3DBD370635000D002031
:100C9000040D00201C0D0020FC0C0020F40C002092
:100CA000F80C0020B7F91030FA681C339B0013448D
:100CB0005A68B7F91030F9681C339B000B445B6825
:100CC0001046194605F0DAFB03461A462B4B1B6803
:100CD0001046194605F0CAFA03461A46274B1A6011
:100CE000B7F91020FB68203253F82220B7F9101012
:100CF000FB68203153F821301046194605F0BEFB41
:100D000003461A461E4B1B681046194605F0AEFAFC
:100D100003461A461A4B1A603B8A01333B82B7F9E5
:100D20001030022BBEDD154B1B68184604F0E2FFA5
:100D300002460B46104619460AF0C6F902460B4613
:100D40001046194605F03CFA02460C4B1A600C4B53
:100D50001B68184604F0CEFF02460B4610461946A3
:100D60000AF0B2F902460B461046194605F028FA79
:100D70000246034B1A601837BD4680BDF40C0020B4
:100D8000F80C002080B582B000AF7860786805F07C
:100D9000CBFC034618460837BD4680BD90B585B0EC
:100DA00000AF786039600820FFF7ECFFB860BB68DF
:100DB000002B2DD07B68002B02D03B68002B01D18B
:100DC000002326E07B689AB2BB681A803B689AB21F
:100DD000BB685A807B689B001846FFF7D3FF02462A
:100DE000BB685A600023FB600EE0BB685A68FB6872
:100DF0009B00D4183B689B001846FFF7C3FF0346CF
:100E00002360FB680133FB60FA687B689A42ECDB85
:100E1000BB6818461437BD4690BD00BF80B588B08A
:100E200000AFF860B9607A60FB68002B02D0BB6845
:100E3000002B01D1002353E0F868B968FFF7AEFF3B
:100E400078617B69002B4AD07B680033022B44D841
:100E50000023FB613CE00023BB6132E07B68012B97
:100E60000CD17B695A68FB699B0013441A68BB6903
:100E70009B0013444FF07E521A601FE07B68022BE8
:100E800010D1FA69BB699A420CD17B695A68FB6937
:100E90009B0013441A68BB699B0013444FF07E52B9
:100EA0001A600BE07B695A68FB699B0013441A685F
:100EB000BB699B0013444FF000021A60BB69013309
:100EC000BB61BA69BB689A42C8DBFB690133FB614D
:100ED000FA69FB689A42BEDB00BF7B6900E0002331
:100EE00018462037BD4680BD80B582B000AF0346AE
:100EF000FB80FB88002B05D1084B1B6801221A825E
:100F0000002306E0064B1B681B689847034B1B68D1
:100F10000A3318460837BD4680BD00BF740D002057
:100F2000700D002080B500AF0F4B1B68DA780F4BB7
:100F30005B789A4215D80C4B1B689B78002B10D11C
:100F4000094B1B689B88002B0BD1074B1B68064A7B
:100F50001268D2789A72064B1B685B689847002328
:100F600000E00223184680BD740D002060000020C0
:100F7000700D002080B582B000AF0346FB80FB8877
:100F8000002B05D1084B1B6801221A82002306E0C2
:100F9000064B1B689B689847034B1B680C3318462D
:100FA0000837BD4680BD00BF740D0020700D0020C5
:100FB00080B582B000AF1E4B1B689B691D4A12684A
:100FC00051791C4A1268D278084611469847034660
:100FD000FB71184B1B689B7A002B23D0FB79002BED
:100FE00009D1144B1B681B79002B04D1114B1B68D2
:100FF0009B78002B01D0022315E0FB79002B11D147
:101000000D4B1B68DB6898470A4B1B68094A12683E
:101010005279DA72074B1B68064A1268D2781A7343
:10102000002300E0022318460837BD4680BD00BFFC
:101030004C0D0020740D0020700D002080B584B090
:1010400000AF0346FB80FB88002B05D1464B1B6895
:1010500002221A82002383E0444B00221A80424B72
:101060001B681B7803F07F03002B2CD13E4B1B68C1
:101070005B7AFB73FB7B03F02003002B07D03B4B19
:101080001B7843F00203DAB2384B1A7006E0374B94
:101090001B7823F00203DAB2344B1A70FB7B03F0A7
:1010A0004003002B07D0314B1B7843F00103DAB229
:1010B0002E4B1A704FE02D4B1B7823F00103DAB250
:1010C0002A4B1A7047E0284B1B681B7803F07F03FC
:1010D000012B01D1254B43E0234B1B681B7803F008
:1010E0007F03022B35D1204B1B685B79BB73BB7B25
:1010F00003F00F037B73BB7B5BB2002B13DA7B7BAC
:101100009B0003F1804303F5B8431B689BB203F0D7
:101110003003102B1CD1154B1B7843F00103DAB2BE
:10112000124B1A7017E07B7B9B0003F1804303F5A1
:10113000B8431B689BB203F44053B3F5805F07D1FB
:101140000A4B1B7843F00103DAB2084B1A7002E035
:1011500001E0002304E0064B1B681B699847034B22
:1011600018461037BD4680BD740D0020440D002088
:10117000700D002090B587B000AF6F4B1B681B78D7
:1011800003F07F033B613B69002B0AD16A4B1B686C
:10119000694A1268527A22F02002D2B25A720023AF
:1011A000C6E03B69022B40F0C280634B1B685B8842
:1011B000002B04D1604B1B681B79002B01D002234C
:1011C000B6E05E4BFB605C4B1B685B79BB60BB6849
:1011D00023F080037B607B683B60574B1B685B7927
:1011E000DBB25BB2002B0BDA3B689B0003F1804360
:1011F00003F5B8431B689BB203F030037B610AE040
:101200003B689B0003F1804303F5B8431B689BB226
:1012100003F440537B61FB681B781A467B689A4253
:1012200007D97B69002B04D0434B1B689B7A002BAA
:1012300001D102237CE0BB6803F08003002B17D0B0
:101240003B689B0003F1804303F5B8431B689BB2E6
:1012500003F03003102B64D13B68DBB2184601F079
:1012600063F93B68DBB21846302101F035F858E0ED
:101270003B689B0003F1804303F5B8431B689BB2B6
:1012800003F44053B3F5805F4BD13B68002B26D16C
:101290003B68DAB22A4B93F82C301046194601F01D
:1012A00005FA3B689B0003F1804303F5B8431B68D4
:1012B0009BB223F4804323F070039CB284F48053E8
:1012C0009CB284F400539CB23B689B0003F18043C2
:1012D00003F5B8431B4A224392B21A6021E03B68EF
:1012E000DBB2184601F0F2F83B689B0003F1804343
:1012F00003F5B8431B689BB223F4804323F07003CB
:101300009CB284F480539CB284F400539CB23B683A
:101310009B0003F1804303F5B8430A4A224392B28B
:101320001A60094B1B685B699847002300E00223A1
:1013300018461C37BD4690BD740D0020600000208B
:10134000640000208080FFFF700D002090B585B004
:1013500000AF404B1B685B79BB60BB6823F0800328
:101360007B607B683B603B4B1B685B79DBB25BB2AD
:10137000002B0BDA3B689B0003F1804303F5B84375
:101380001B689BB203F03003FB600AE03B689B00E4
:1013900003F1804303F5B8431B689BB203F4405349
:1013A000FB602D4B1B781A463B689A420CD9294B9F
:1013B0001B685B88002B07D1FB68002B04D0254BF2
:1013C0001B689B7A002B01D102233EE0BB6803F02F
:1013D0008003002B1AD03B689B0003F1804303F588
:1013E000B8431B689BB223F4E04323F040039CB254
:1013F00084F010039CB23B689B0003F1804303F52B
:10140000B843164A224392B21A6019E03B689B0027
:1014100003F1804303F5B8431B689BB223F4804378
:1014200023F070039CB284F480539CB23B689B0011
:1014300003F1804303F5B843084A224392B21A608D
:10144000074B1B689B699847002318461437BD4615
:1014500090BD00BF740D0020600000208080FFFF61
:10146000700D002080B500AF074B1B68064A12685C
:10147000527A42F02002D2B25A72044B1B68DB69E6
:1014800098470023184680BD740D0020700D002081
:1014900080B485B000AF03463960FB800D4B1B68FC
:1014A0005B8AFB60FB88002B0AD10A4B1B683A68F9
:1014B0009188FA6892B28A1A92B21A82002303E0E3
:1014C0003B681A68FB68134418461437BD465DF83C
:1014D000047B7047740D002080B584B000AF3A4B98
:1014E0001B681033BB60BB681B887B60BB689B6854
:1014F000002B2ED07B68002B2BD0BB689B88FB6019
:10150000FA687B689A4201D97B68FB60BB689B687C
:10151000FA6892B2104698473860BB681A88FB6830
:101520009BB2D31A9AB2BB681A80BB685A88FB6810
:101530009BB213449AB2BB685A80002001F07EF837
:1015400003461A46FB689BB2386811461A4600F0FB
:101550005FFEBB681B88002B0AD01C4B4FF4405227
:101560001A800020002101F085F8194B30221A80E2
:10157000BB681A88BB689B889A4204D3124B1B68CD
:1015800003221A721CE0BB681B88002B04D00E4B90
:101590001B6805221A7213E0BB681B88002B0FD151
:1015A000094B1B6806221A720A4B1B689BB21A462B
:1015B000094B13445B0000221A60054B30221A804D
:1015C0001037BD4680BD00BF740D00207A0D00208D
:1015D0007C0D0020505C00400230002080B586B0B9
:1015E00000AF3B4B1B681033FB60FB681B88BB6084
:1015F000374B1B681B7A7B61BB68002B1ED17B6954
:10160000042B1BD1334B1B78012B11D1324B1B68A0
:101610009BB21A46314B13445B0000221A60304BD8
:1016200030221A8004237B612A4B00221A7046E084
:1016300007237B612A4B10221A8040E0FB689B88BD
:101640003B61BA683B699A4201D8042300E0022357
:101650007B613A69BB689A4201D9BB683B61FB6810
:101660009B683A6992B2104698477860002000F073
:10167000C9FF03461A463B699BB2786811461A4671
:1016800000F08CFD3B699BB20020194600F0F2FF90
:10169000FB681A883B699BB2D31A9AB2FB681A801E
:1016A000FB685A883B699BB213449AB2FB685A8024
:1016B0000B4B30221A800B4B4FF440521A80044BD4
:1016C0001B687A69D2B21A721837BD4680BD00BF56
:1016D000740D0020480A0020505C004002300020B9
:1016E0007C0D00207A0D002080B584B000AF02236D
:1016F000FB735D4B1B685B787B605B4B1B681B78E7
:1017000003F07F03002B57D17B68092B04D1FFF72F
:1017100009FC0346FB7377E07B68052B1BD1524B1A
:101720001B68DB78DBB25BB2002B0EDB4E4B1B6819
:101730009B78002B09D14C4B1B689B88002B04D154
:10174000494B1B689B7A002B02D00823BB6081E0C9
:101750000023FB7358E07B68032B11D1424B1B68BD
:10176000DB78012B09D1404B1B689B88002B04D1EF
:10177000FFF778FE0346FB7346E00223FB7343E06A
:101780007B68012B40D1384B1B68DB78012B10D1D3
:10179000354B1B689B88002B0BD1334B1B685B7A46
:1017A00003F02003002B04D0FFF7E4FC0346FB7397
:1017B0002AE00223FB7327E02B4B1B681B7803F006
:1017C0007F03012B07D17B680B2B1DD1FFF7F0FBAB
:1017D0000346FB7318E0244B1B681B7803F07F0360
:1017E000022B0FD17B68012B04D1FFF7C3FC03460A
:1017F000FB7309E07B68032B06D1FFF7A7FD0346C7
:10180000FB7301E00223FB73FB7B002B0ED0174B15
:101810001B685B697A68D2B2104698470346FB732F
:10182000FB7B032B02D10923BB6013E0FB7B002B66
:1018300002D00823BB600DE00623BB600C4B1B6885
:101840009BB21A460B4B13445B0000221A600A4BF2
:1018500030221A80044B1B68BA68D2B21A7200BFD9
:101860001037BD4680BD00BF740D00204C0D002018
:10187000505C0040023000207C0D002080B58AB012
:1018800000AF934B1B685B78BB6100237B62002336
:101890007B61BB69062B23D18D4B1B681B7803F042
:1018A0007F03002B1BD18A4B1B689B78FB74FB7C4E
:1018B000012B04D1874B1B68DB697B620FE0FB7C4B
:1018C000022B04D1834B1B681B6A7B6207E0FB7C05
:1018D000032B04D17F4B1B685B6A7B62B6E0B5E0EB
:1018E000BB69002B79D17A4B1B685B88002B74D1C4
:1018F000774B1B68DB88022B6FD1754B1B681B79FC
:10190000002B6AD1724B1B681B7803F07F03002BFE
:1019100007D16F4B1B689B88002B02D16E4B7B62FB
:101920005AE06B4B1B681B7803F07F03012B13D12C
:10193000684B1B689B69664A126852791046002101
:1019400098470346002B47D1614B1B689B7A002BBD
:1019500042D0614B7B6279E05D4B1B681B7803F0E2
:101960007F03022B38D15A4B1B685B7903F00F03BE
:10197000FB60574B1B685B7903F07003BB60544BF3
:101980001B685B79DBB25BB2002B0BDAFB689B0058
:1019900003F1804303F5B8431B689BB203F03003A7
:1019A000FB610AE0FB689B0003F1804303F5B84349
:1019B0001B689BB203F44053FB61484B1B781A46EB
:1019C000FB689A4208D9BB68002B05D1FB69002B44
:1019D00002D0414B7B6239E038E0BB69082B09D16A
:1019E0003B4B1B681B7803F07F03002B2ED13C4B35
:1019F0007B622BE0BB690A2B28D1354B1B681B7817
:101A000003F07F03012B21D1314B1B689B7A002B04
:101A10001CD02F4B1B685B88002B17D12C4B1B68ED
:101A20001B79002B12D12A4B1B68DB88012B0DD1AF
:101A3000284B1B689B69264A126852791046002180
:101A400098470346002B01D1264B7B627B6A002B13
:101A50000FD01F4B1B687A6992B25A821C4B1B68CD
:101A60007A6A9A617B6A00209847002387F82330BE
:101A700013E0184B1B681B69154A12685278104610
:101A80009847034687F8233097F82330032B04D177
:101A90000F4B1B6809221A7277E00D4B1B681A8ADC
:101AA0004FF6FF739A4204D1094B1B6809221A7240
:101AB0006BE097F82330022B04D0054B1B681B8A80
:101AC000002B11D1024B1B6808221A725DE000BF87
:101AD000740D00204C0D00203D1000086000002017
:101AE000E90E0008750F0008294B1B681B78DBB254
:101AF0005BB2002B40DA264B1B68DB887B60244BF3
:101B00001B681B8A1A467B689A4205D9204B1B68C2
:101B10007A6892B21A8225E01D4B1B681A8A1C4B08
:101B20001B68DB889A421DD2194B1B681A8A194B15
:101B30001B6893F82C309A4203D2174B00221A707C
:101B400010E0134B1B681B8A124A126892F82C2073
:101B500093FBF2F102FB01F29B1A002B02D10E4B18
:101B600001221A700A4B1B680A4A126892F82C204C
:101B70009A82FFF733FD07E0054B1B6803221A72B8
:101B8000064B4FF440521A8000BF2837BD4680BD37
:101B9000740D00204C0D0020480A00207A0D002012
:101BA00090B583B000AF0123FB80304B1B689BB224
:101BB0001A462F4B13445B001B689BB25B0003F17A
:101BC000804303F5C0433B602A4B1B681B7A092BFB
:101BD00037D0284B1A683B68591C39601B78137042
:101BE000244B1A683B68591C39601B7853703A685B
:101BF000FB885B0013443B601E4B1C683B689A1CCF
:101C00003A601B88184600F0B1FD034663803A68CD
:101C1000FB885B0013443B60164B1C683B689A1CB6
:101C20003A601B88184600F0A1FD0346A3803A687D
:101C3000FB885B0013443B600E4B1B683A681288BC
:101C4000DA800C4B1B6801221A720A4B1B68DB8876
:101C5000002B02D1FFF748FD01E0FFF70FFE00F077
:101C60008DF8034618460C37BD4690BD505C0040C9
:101C700004300020740D002080B582B000AF1F4BEF
:101C80001B681B7A7B607B68022B02D07B68042B6D
:101C900006D1FFF7A3FC194B1B681B7A7B6021E080
:101CA0007B68062B1CD1154B1B685B78052B10D16C
:101CB000124B1B681B7803F07F03002B09D10F4BDD
:101CC0001B68DB78184600F081F80D4B1B681B6A17
:101CD00098470C4B1B689B68984708237B6001E082
:101CE00008237B60054B1B687A68D2B21A7200F039
:101CF00045F8034618460837BD4680BD740D0020E0
:101D0000700D00204C0D002080B582B000AF194B43
:101D10001B681B7A7B607B68022B02D07B68042BDC
:101D200002D108237B6018E07B68032B02D07B681C
:101D3000052B06D1FFF7D0FB0E4B1B681B7A7B608F
:101D40000BE07B68072B06D10B4B1B68DB689847C1
:101D500008237B6001E008237B60064B1B687A68E0
:101D6000D2B21A7200F00AF8034618460837BD4688
:101D700080BD00BF740D00204C0D002080B500AF69
:101D80000E4B93F82C300020194600F08FFC0C4BC2
:101D90001B681B7A082B06D10A4B4FF480521A801D
:101DA000094B10221A80064B1B681B7A092B14BFA3
:101DB00000230123DBB2184680BD00BF6400002071
:101DC000740D00207A0D00207C0D002080B485B0B9
:101DD00000AF0346FB711A4B1B78BB600023FB600E
:101DE0001EE0FB68DBB29B0003F1804303F5B843C0
:101DF000FA68D2B2920002F1804202F5B84212684B
:101E000092B2114640F60F720A4042F4004242F08C
:101E10008002F968C9B20A431A60FB680133FB60AB
:101E2000FA68BB689A42DCD3064BFA7962F07F020B
:101E3000D2B21A601437BD465DF8047B704700BF0C
:101E4000600000204C5C004080B400AFBD465DF8EF
:101E5000047B704780B500AF084B094A1A60074BF6
:101E60001B6802221A72074B074A1A60074B084A7E
:101E70001A60044B1B681B68984780BD740D0020D6
:101E8000540D00204C0D002064000020700D002037
:101E90009400002090B583B000AF0023FB8065E183
:101EA000854B1B889BB2DBB203F00F03DAB2834B86
:101EB0001A70824B1B78002B40F00A81804B1B6804
:101EC0009AB2804B1A807F4B1B889BB203F0300381
:101ED0009AB27D4B1A807B4B1B889BB203F4405314
:101EE0009AB2784B1A80764B1B689BB24BF6BF7444
:101EF0001C4084F4005484F02004714AA1B2734B56
:101F00000B439BB213606C4B1B889BB203F0100316
:101F1000002B3FD16A4A6A4B1B689BB2194648F6B0
:101F20000F730B401360FFF7A7FE654B1B689BB256
:101F30004BF6BF741C40634B1B889BB203F4805369
:101F40009BB2002B01D084F480545E4B1B889BB263
:101F500003F400539BB2002B01D084F400545A4B7D
:101F60001B889BB203F010039BB2002B01D084F0BE
:101F70001004554B1B889BB203F020039BB2002B2F
:101F800001D084F020044E4AA1B2504B0B439BB2C7
:101F90001360F6E04A4B1B689BB2FB80FB889BB248
:101FA00003F40063002B3FD0454A454B1B689BB2AE
:101FB000194640F68F730B401360FFF7F1FD404B5D
:101FC0001B689BB24BF6BF741C403E4B1B889BB2F8
:101FD00003F480539BB2002B01D084F48054394B1E
:101FE0001B889BB203F400539BB2002B01D084F4F6
:101FF0000054354B1B889BB203F010039BB2002B9F
:1020000001D084F01004304B1B889BB203F02003F6
:102010009BB2002B01D084F02004294AA1B22B4BA3
:102020000B439BB21360ACE0FB889BB29BB21BB22C
:10203000002B80F29B80224A214B1B689BB21946E1
:1020400040F68F730B401360FFF75EFE1C4B1B685E
:102050009BB24BF6BF741C401A4B1B889BB203F417
:1020600080539BB2002B01D084F48054154B1B8805
:102070009BB203F400539BB2002B01D084F40054B4
:10208000114B1B889BB203F010039BB2002B01D0B5
:1020900084F010040C4B1B889BB203F020039BB20E
:1020A000002B01D084F02004054AA1B2074B0B435A
:1020B0009BB2136065E000BFC00D0020500D0020F2
:1020C000005C00407A0D00207C0D00208080FFFF26
:1020D0002D4B1B789B0003F1804303F5B8431B682D
:1020E0009BB2FB80FB889BB29BB21BB2002B1BDA1E
:1020F000254B1B789B0003F1804303F5B843224A2C
:102100001278920002F1804202F5B842126892B24F
:10211000114640F68F720A401A601B4B1B785A1EFC
:102120001A4B53F822309847FB889BB203F0800388
:10213000002B1BD0144B1B789B0003F1804303F54D
:10214000B843114A1278920002F1804202F5B84277
:10215000126892B2114648F60F720A401A600A4B92
:102160001B785A1E0A4B53F822309847094B1B68BC
:102170009BB2094A194611809BB21BB2002BFFF695
:102180008FAE0C37BD4690BD500D00203C000020A6
:1021900020000020445C0040C00D002080B489B0C5
:1021A00000AF786013460A467A803B803B88013353
:1021B0005B107B617B8803F1005303F540535B00A8
:1021C000BB617B69FB611BE07B681B783B617B68C3
:1021D00001337B607B681B781B021A463B69134303
:1021E000FB60BB699A1CBA61FA6892B21A80BB693B
:1021F0000233BB617B6801337B60FB69013BFB61A0
:10220000FB69002BE0D12437BD465DF8047B7047A5
:1022100080B487B000AF786013460A467A803B806E
:102220003B8801335B10FB607B8803F1005303F5AF
:1022300040535B003B61FB687B610EE07B685A1C8E
:102240007A603A69111D3961126892B21A807B680E
:1022500001337B607B69013B7B617B69002BEDD1A6
:102260001C37BD465DF8047B704700BF80B483B067
:1022700000AF0346FB80054AF9884FF6F8730B4020
:1022800013600C37BD465DF8047B7047505C00401E
:1022900080B483B000AF02460B46FA71BB80FB7975
:1022A0009B0003F1804303F5B843FA79920002F1F1
:1022B000804202F5B842126892B222F4EC4222F057
:1022C000700291B2BA880A4392B292B21A600C3785
:1022D000BD465DF8047B704790B482B000AF024603
:1022E0000B46FA71BB80FB799B0003F1804303F539
:1022F000B8431B689BB223F4E04323F040039CB235
:10230000BB8803F010039BB2002B02D084F01003B3
:102310009CB2BB8803F020039BB2002B02D084F058
:1023200020039CB2FB799B0003F1804303F5B84383
:10233000034A224392B21A600837BD4690BC7047E8
:102340008080FFFF90B482B000AF02460B46FA7166
:10235000BB80FB799B0003F1804303F5B8431B6806
:102360009BB223F4804323F070039CB2BB8803F438
:1023700080539BB2002B02D084F480539CB2BB8864
:1023800003F400539BB2002B02D084F400539CB2A0
:10239000FB799B0003F1804303F5B843034A2243D2
:1023A00092B21A600837BD4690BC70478080FFFF2C
:1023B00080B483B000AF0346FB71FB799B0003F14F
:1023C000804303F5B8431B689BB203F030039BB214
:1023D00018460C37BD465DF8047B704790B482B058
:1023E00000AF0346FB71FB799B0003F1804303F5CB
:1023F000B8431B689BB223F4E04323F040039CB234
:1024000084F010039CB284F020039CB2FB799B0003
:1024100003F1804303F5B843034A224392B21A60A2
:102420000837BD4690BC70478080FFFF90B482B0F3
:1024300000AF0346FB71FB799B0003F1804303F57A
:10244000B8431B689BB223F4804323F070039CB213
:1024500084F480539CB284F400539CB2FB799B00BB
:1024600003F1804303F5B843034A224392B21A6052
:102470000837BD4690BC70478080FFFF80B483B0B2
:1024800000AF0346FB71FB799B0003F1804202F52C
:10249000B842FB799B0003F1804303F5B8431B6806
:1024A0009BB223F4F8731B051B0D9BB243F07F43D3
:1024B00043F47F0343F4004343F080039BB29BB299
:1024C00013600C37BD465DF8047B704780B483B061
:1024D00000AF0346FB71FB799B0003F1804303F5DA
:1024E000B8431B689BB203F48043002B16D0FB79E2
:1024F0009B0003F1804303F5B843FA79920002F19F
:10250000804202F5B842126892B2114640F60F724C
:102510000A4042F4404242F080021A600C37BD4645
:102520005DF8047B704700BF80B483B000AF034602
:10253000FB71FB799B0003F1804303F5B8431B68F3
:102540009BB203F04003002B16D0FB799B0003F1F4
:10255000804303F5B843FA79920002F1804202F514
:10256000B842126892B2114640F60F720A4042F425
:10257000004242F0C0021A600C37BD465DF8047B91
:10258000704700BF80B483B000AF02460B46FA71BB
:10259000BB800B4B1B689BB21A46FB79DB001344D4
:1025A00003F1005303F540535B00BA88520892B21E
:1025B00052001A600C37BD465DF8047B704700BFBF
:1025C000505C004080B483B000AF02460B46FA7105
:1025D000BB800A4B1B689BB21A46FB79DB001A448E
:1025E000074B13445B00BA88520892B252001A603B
:1025F0000C37BD465DF8047B704700BF505C00405F
:102600000430002080B483B000AF0346FB710A4B56
:102610001B689BB21A46FB79DB00134403F100539D
:1026200003F540535B001B689BB218460C37BD4650
:102630005DF8047B704700BF505C004080B483B0FD
:1026400000AF0346FB71094B1B689BB21A46FB792E
:10265000DB001A44064B13445B001B689BB2184610
:102660000C37BD465DF8047B704700BF505C0040EE
:102670000430002080B483B000AF02460B46FA71EC
:10268000BB80084B1B689BB21A46FB79DB001A44DF
:10269000054B13445B00BA881A600C37BD465DF8E1
:1026A000047B7047505C00400230002080B485B04D
:1026B00000AF02460B46FA71BB801B4B1B689BB2F6
:1026C0001A46FB79DB001A44184B13445B00BB60CD
:1026D000BB883E2B12D9BB885B09FB81BB8803F00A
:1026E0001F03002B02D1FB89013BFB81FB899B026D
:1026F00043F400431A46BB681A600FE0BB885B08CE
:10270000FB81BB8803F00103002B02D0FB8901335E
:10271000FB81FB899B021A46BB681A601437BD46D1
:102720005DF8047B704700BF505C0040063000201D
:1027300080B483B000AF0346FB710A4B1B689BB2A9
:102740001A46FB79DB001A44074B13445B001B68F5
:102750009BB2C3F309039BB218460C37BD465DF824
:10276000047B7047505C00400630002080B485B088
:1027700000AF0346FB80FB88FB73FB881B0A9BB200
:102780009AB2FB7B1B029BB213439BB2BB81BB89FA
:1027900018461437BD465DF8047B704780B400AF1F
:1027A000084B00221A60084B4FF406421A80074B70
:1027B000054A12881A6000231846BD465DF8047B5E
:1027C000704700BF445C0040780D0020405C004032
:1027D00080B500AF0320FFF7ABFF03461A46074B57
:1027E0001A60064B1B689BB205484FF488711A4665
:1027F000FFF70EFD0320FFF719FE80BD4C0A0020F5
:10280000800D002080B582B000AF0420012102F0CD
:1028100031FE4FF400733B800323BB701023FB7029
:102820003B461448194602F0CDF9012000F026F885
:10283000002002F041FD4FF40000012102F038FEBB
:102840004FF4407001F052FF14233B710C237B7155
:102850000023BB710123FB713B1D184601F058FF9B
:10286000FFF7F8FA00BF044B1B68052BFBD10837B4
:10287000BD4680BD00080140600C002080B582B0DC
:1028800000AF0346FB71FB79002B05D006484FF4DF
:10289000007102F053FA04E003484FF4007102F0B3
:1028A0005BFA0837BD4680BD0008014080B584B0A2
:1028B00000AF0E4B1B68FB600D4B1B68BB600D4BE4
:1028C0001B687B60FA687B681344FB60FB68002B25
:1028D00009D0F8680849082200F0F6F8B8680749F6
:1028E000042200F0F1F81037BD4680BDE8F7FF1F65
:1028F000ECF7FF1FF0F7FF1F060000201600002076
:102900000FB480B5C2B000AF002387F8073107F5D8
:102910008A723B461A603A1D3B461046D7F81011A2
:102920001A6804F083FA002387F8073104E097F867
:102930000731013387F8073197F807313A1DD35C27
:10294000002BF4D197F807319BB23A1D1046194677
:1029500000F008F807F58477BD46BDE8804004B074
:10296000704700BF80B485B000AF78600B467B80B5
:10297000134B1B68FB6000237B8114E07B681A7893
:102980001049FB680B441A70FB680133FB60FB685D
:10299000B3F5007F01D10023FB607B6801337B60CE
:1029A0007B8901337B817A897B889A42E6D3044B09
:1029B000FA681A601437BD465DF8047B704700BFA3
:1029C000500C0020500A002080B584B000AF0023D6
:1029D000FB72394B1B687B60384B1A687B689A42E4
:1029E00067D00123FB7261E0344B1A687B689A421E
:1029F00001D10023FB72314B1A687B689A4206D9D9
:102A00002E4B1B68C3F500722D4B1A6005E02B4B53
:102A10001B687A68D21A2A4B1A60294B1B683F2B15
:102A20001BD8264B1B68FB81254B1B68BB81234BA6
:102A30001A68234B1B681A44204B1A60204B002253
:102A40001A601E4B1B68B3F5007F03D11B4B00229D
:102A50001A6013E00023FB7210E0184B1B68FB8127
:102A60004023BB81154B1B6803F14002134B1A60D6
:102A7000134B1B68A3F14002114B1A6000BF0120E9
:102A8000FFF796FC0346302BF9D0FA890D4B1A4418
:102A9000BB891046C0211A46FFF780FBBB89012085
:102AA0001946FFF7E7FD0120FFF798FCFB7A012BA1
:102AB0009AD01037BD4680BD500C0020540C002029
:102AC000580C0020500A002080B487B000AFF86096
:102AD000B9601346FB710023FB750023FB7525E0ED
:102AE000FB681B0F092B0AD8FB7D5B00BA681344F7
:102AF000FA68120FD2B23032D2B21A7009E0FB7DFE
:102B00005B00BA681344FA68120FD2B23732D2B2FD
:102B10001A70FB681B01FB60FB7D5B000133BA6828
:102B2000134400221A70FB7D0133FB75FA7DFB799B
:102B30009A42D5D31C37BD465DF8047B704700BF71
:102B400080B500AF1B4B1B689AB21B4B1A801A4B07
:102B50001B889BB203F40072184B1B881340002B98
:102B60000AD0144B4FF6FF521A60154B1B78DBB29C
:102B70000133DAB2124B1A700F4B1B889BB203F46D
:102B800000420E4B1B881340002B01D0FFF782F947
:102B9000094B1B889BB203F48062084B1B881340CF
:102BA000002B06D0034B4FF6FF321A60054B5B68D3
:102BB000984780BD445C0040C00D0020780D002087
:102BC0005C0C00206400002080B500AFFFF76EFEB3
:102BD000054B1B6800229A7200F0AAF9FFF7DEFD90
:102BE000024B00221A6080BD740D0020600C002092
:102BF00080B500AF364B1B6800229A72344B1B68BD
:102C0000344AD2795A72324B1B680022DA720020A1
:102C1000FFF72CFB00204FF40071FFF739FB002079
:102C20001021FFF759FB00204021FFF7CBFC0020CB
:102C30008021FFF7A7FC0020FFF720FC264B93F82C
:102C40002C3000201946FFF731FD0020FFF7EEFB86
:102C500001200021FFF71CFB0120C021FFF792FC9F
:102C600001202021FFF738FB01200021FFF76AFB3C
:102C700002204FF4C061FFF70BFB02204FF480717C
:102C8000FFF780FC02200021FFF75CFB02202021DF
:102C9000FFF722FB03200021FFF7FAFA03204FF48D
:102CA0008871FFF78FFC03204021FFF7FFFC032012
:102CB0004FF44051FFF746FB03200021FFF70CFBC8
:102CC0000020FFF783F8054B01221A6080BD00BF8A
:102CD000740D00205CB3000864000020600C00202C
:102CE00080B483B000AF074B7B607B689B7A002B7E
:102CF00002D0054B05221A600C37BD465DF8047BF7
:102D0000704700BF540D0020600C002080B400AF5D
:102D1000034B04221A60BD465DF8047B704700BF78
:102D2000600C002080B400AF054B1B78202B02D133
:102D3000034B00221A70BD465DF8047B704700BF4C
:102D40005D0C002080B400AFBD465DF8047B704789
:102D500080B584B000AF0346FB710023FB60FB79B4
:102D6000212B09D1164B1B681B7803F07F03212B05
:102D700011D1144BFB600EE0FB79202B0BD1104BD3
:102D80001B681B7803F07F03212B01D10E4BFB60E6
:102D90000E4B20221A70FB68002B01D102230BE09E
:102DA000074B1B68FA689A61054B1B6800225A8220
:102DB000FB6800209847002318461037BD4680BDA9
:102DC000740D0020C92E0008FD2E00085D0C0020A7
:102DD00080B483B000AF0346FB710C4B1B681B78BB
:102DE00003F07F03212B09D1FB79022B01D10023B2
:102DF00005E0FB79222B01D1002300E002231846D5
:102E00000C37BD465DF8047B704700BF740D002091
:102E100080B582B000AF0346FB80FB8818460449AA
:102E2000FEF736FB034618460837BD4680BD00BF97
:102E3000B800002080B582B000AF0346FB80FB885D
:102E400018460449FEF724FB034618460837BD46DA
:102E500080BD00BFC000002080B584B000AF034635
:102E6000FB800B4B1B68DB78FB73FB7B042B01D9CE
:102E7000002309E0FB7BDA00064B1344FA88104676
:102E80001946FEF705FB034618461037BD4680BDC0
:102E9000740D0020C800002080B483B000AF02464B
:102EA0000B46FA71BB71BB79002B01D0022305E000
:102EB000FB79012B01D9022300E0002318460C37CF
:102EC000BD465DF8047B704780B483B000AF034615
:102ED000FB80FB88002B05D1064B1B6808221A8259
:102EE000002300E0044B18460C37BD465DF8047B18
:102EF000704700BF740D00205800002080B483B0DC
:102F000000AF0346FB80FB88002B05D1064B1B68F6
:102F100008221A82002300E0044B18460C37BD46F5
:102F20005DF8047B704700BF740D0020580000203E
:102F300080B582B000AF0120FFF7A0FC0123FB8029
:102F40000C4BFA881A600C4B00221A80094B0A4A73
:102F500012881A60094B00221A60074B4FF4E052A6
:102F60001A80044B044A12881A6000231846083756
:102F7000BD4680BD405C0040780D0020445C0040B0
:102F800080B586B002AF78600023FB730023BB736B
:102F900007F10E0301220092234833211A4623230E
:102FA000FDF7A8FA7B681A787B685B781343DAB27E
:102FB0007B689B781343DAB2FB7B1343DBB2FB7372
:102FC0007B68DA787B681B791343DAB27B685B79BC
:102FD0001343DAB2BB7B1343DBB2BB737B689B79D1
:102FE000012B05D1BB7B43F00803DBB2BB7304E0CC
:102FF000BB7B23F00F03DBB2BB7307F10F0301228E
:103000000092094833211A462023FDF755FB07F1AA
:103010000E0301220092044833211A462323FDF7B0
:103020004BFB1037BD4680BD0058004080B586B0D0
:1030300002AF78600023FB730023BB737B685A7870
:103040007B68DB781343DAB2FB7B1343DBB2FB73A1
:103050007B681B78012B05D1FB7B43F00803DBB2B7
:10306000FB7304E0FB7B23F00803DBB2FB737B689C
:103070001B79012B05D1FB7B43F00403DBB2FB730F
:1030800004E0FB7B23F00403DBB2FB737B685B791A
:10309000012B05D1FB7B43F00203DBB2FB7304E0A1
:1030A000FB7B23F00203DBB2FB737B689B79012B74
:1030B00005D1FB7B43F00103DBB2FB7304E0FB7B38
:1030C00023F00103DBB2FB737B689A78BB7B13436D
:1030D000DBB2BB7307F10F030122009209483321D1
:1030E0001A462123FDF7E8FA07F10E0301220092A8
:1030F000044833211A462623FDF7DEFA1037BD4671
:1031000080BD00BF0058004080B586B002AF786037
:1031100000233B7300237B730023FB723A7B7B68A5
:103120001B781343DBB23B737B68DB78012B04D144
:103130003B7B63F07F03DBB23B737A7B7B685B781E
:103140001343DBB27B737B689A78FB7A1343DBB261
:10315000FB7207F10C030222009209483D211A4636
:103160000023FDF7A9FA07F10B030122009204489E
:103170003D211A460223FDF79FFA1037BD4680BD58
:103180000058004080B584B000AF78600023FB7326
:103190000023BB737B681A787B685B781343DAB2D1
:1031A0007B689B781343DAB2FB7B1343DBB2FB7380
:1031B0007B68DA787B681B791343DAB27B685B79CA
:1031C0001343DAB2BB7B1343DBB2BB7307F10F03CC
:1031D0000848194620220123FDF7F4FB07F10E03EE
:1031E0000448194623220123FDF7ECFB1037BD46A6
:1031F00080BD00BF0038004080B586B000AF0246F9
:103200000B46FA71BB7104231846012102F032F912
:103210004FF48063BB810423FB73FA79124B53F89C
:10322000222007F10C031046194601F0CBFCBB79B4
:10323000012B15D10023DAB20A23DBB2104619465E
:1032400001F008FE4FF480633B6100233B750823C7
:103250007B750123BB7507F11003184601F012FCC2
:103260001837BD4680BD00BFE800002080B584B09F
:1032700000AF02460B46FA71BB712823DBB23B73E9
:103280000C23DBB27B730023DBB2BB73BB79FB7314
:1032900007F10C03184601F03BFA1037BD4680BD1C
:1032A00080B489B000AFF860B9607A60FB687B6178
:1032B000FB685A1E364BA3FB0213DB0B9BB2013398
:1032C000BB83BB68BA8B1A80BB681B88FA68B2FBE9
:1032D000F3F3FB837B68FA8B1A8047E0BB681B889B
:1032E000FA68B2FBF3F39AB27B681A80BB681B885A
:1032F0007A68128802FB03F2FB68D31ABB61BB69D0
:1033000083EAE372A2EBE372BB681B885B089BB2A3
:103310009A420EDD7B681B8801339AB27B681A8063
:10332000BB681B887A68128802FB03F2FB68D31A19
:10333000BB61BB6983EAE372A2EBE3727B69002B9A
:10334000B8BF5B429A420BDABB697B61BB681B88E2
:10335000BB837B681B88FB83BB69002B00D10BE020
:10336000BB681B8801339AB2BB681A80BB681A8895
:103370004FF6FD739A42B1D9BB68BA8B1A807B684D
:10338000FA8B1A802437BD465DF8047B704700BF76
:103390000180008080B588B000AF3223FB77012028
:1033A000012102F085F84FF08040012102F01AFA65
:1033B00007F10803184602F0B1F91B4B1A68FB7FAE
:1033C000B2FBF3F3BB6107F1160207F11403B8690E
:1033D00011461A46FFF764FFBB8A013B9BB2BB81D3
:1033E000FB8A013B9BB23B810023FB8100237B8155
:1033F00007F108034FF08040194602F013F94FF02F
:103400008040012102F0A4F91C233B710023BB7111
:103410000D237B710123FB713B1D184601F078F9E8
:103420002037BD4680BD00BF0001002080B500AF41
:103430004FF08040012102F0ABF90346002B07D08A
:10344000044B01221A704FF08040012102F0CAF9AA
:1034500080BD00BF880C002080B58AB000AF0F206F
:10346000202100F0B5FC0020032100F04BFFAE4A04
:1034700007F118031068186012791A71AB4A07F146
:1034800010031068186012791A7107F118031846B2
:1034900000F02CFD07F11003184600F03DFD00235D
:1034A0007B6202E07B6A01337B627A6AA04B9A42BC
:1034B000F8D90020FCF79CFE00200121FFF79CFEBC
:1034C00000200121FFF7D2FE9A4800F085FBFFF7AC
:1034D00099F9994800F080FBFFF75CFF974800F0EE
:1034E0007BFB974B4FF000025A67954B4FF0000261
:1034F0009A67934B934ADA67914B934AC3F88020BB
:103500008F4B4FF00002C3F884208D4B8F4AC3F8D5
:1035100088208B4B8E4A5A60894B8E4AC3F88C2088
:10352000874B8C4AC3F8902085488B498B4AFDF71E
:1035300095FA8B4800F050FB8A488B49FCF7A0FEB7
:103540008A48FDF779F98A4800F046FB894B00224A
:103550001A70884B70225A70864B07229A70854BDE
:103560000022DA70834B00221A71824B40225A717A
:10357000804B01229A71804B00221A707E4B0022F0
:103580005A707D4B00229A707B4B1022DA707A4B76
:1035900000221A71784B00225A71774B00229A71DF
:1035A000764B14221A70754B40225A70734B0022CE
:1035B0009A70724B0122DA706E48FFF7E1FC6E4898
:1035C000FFF734FD6D48FFF79FFD6D4B08221A7021
:1035D0006B4B40225A706A4B07229A70684B10223C
:1035E000DA70674B80221A71654B40225A71644829
:1035F000FFF7C8FD634800F0EFFA4FF4967000F053
:10360000E1F8614800F0E8FA0023FB715F4B3B6290
:10361000FB1D386A194600F00BFB5D4800F0DCFA30
:10362000FB79142B77D15B48396A042203F020FB25
:103630003B6A043358481946042203F019FB3B6ADD
:10364000083356481946042203F012FB3B6A0C3338
:1036500053481946042203F00BFB3B6A10335148D0
:103660001946042203F004FB4F4B00221A600DE0C0
:103670004D4B1B683A6A13441B784C48194600F0BE
:1036800061FA494B1B685A1C474B1A60464B1B6832
:10369000132BEDDD0A2003F065FB0020FCF7C8FDCD
:1036A000434B1B6803F10B02414B1A60394B1B68FB
:1036B000184602F01FFB02460B463E48FFF720F972
:1036C000344B5B68184602F015FB02460B4639483E
:1036D000FFF716F92F4B9B68184602F00BFB0246CA
:1036E0000B463448FFF70CF92A4BDB68184602F00A
:1036F00001FB02460B462F48FFF702F9254B1B69D9
:10370000184602F0F7FA02460B462B48FFF7F8F886
:10371000FFF75AF978E72948FFF7F2F82848FFF74A
:10372000EFF8FFF751F96FE7F4B40008FCB40008B4
:10373000FEFF0F0014B4000834B4000848B40008B9
:10374000E00D0020C3F51CC1A470BD3E000080BE8A
:103750000AD7A33CCA61B3366C0C0020780C002059
:1037600060B4000800580040801A0600003800408D
:1037700074B40008C40D0020D80D0020A40E002051
:10378000FC0E002090B40008B0B40008BC0E00206D
:10379000C4B40008040F0020080F00200C0F002004
:1037A000100F0020140F0020680C0020D4B4000873
:1037B000640C0020D8B40008E0B40008ECB40008A1
:1037C000F0B4000880B483B000AF78607B6843F247
:1037D000D40202FB03F37B607B6818460138FDD8F6
:1037E0000C37BD465DF8047B704700BF80B400AF66
:1037F000BD465DF8047B704780B400AFFEE700BFB4
:1038000080B400AFFEE700BF80B400AFFEE700BFAA
:1038100080B400AFFEE700BF80B400AFBD465DF8E6
:10382000047B704780B400AFBD465DF8047B7047F1
:1038300080B400AFBD465DF8047B704780B500AF33
:10384000FFF77EF980BD00BF80B487B000AFF8609D
:10385000B9607A6001237B6104E07B697A6802FBCE
:1038600003F37B617B69BA68B2FBF3F27B689A422F
:10387000F3D22BE07B69BA68B2FBF3F33B617A6960
:10388000BB68B3FBF2F102FB01F29B1ABB607A69E1
:103890007B6892FBF3F37B613B69092B0BDDFB68D3
:1038A0001B68591CFA6811603A69D2B23732D2B239
:1038B000D2B21A700AE0FB681B68591CFA681160E2
:1038C0003A69D2B23032D2B2D2B21A707B69002BCE
:1038D000D0D11C37BD465DF8047B704780B588B0F9
:1038E00000AFF860B9607A60FB687B6181E0BB681B
:1038F0001B785BB2252B74D1BB680133BB60BB68FE
:103900001B785BB2642B1ED0642B06DC582B52D084
:10391000632B0ED0252B5AD05FE0732B2CD0732B4A
:1039200002DC692B0FD058E0752B38D0782B42D0B1
:1039300053E0FB685A1CFA607A68111D79601268BE
:10394000D2B21A7049E07B681A1D7A601B68FB616D
:10395000FB69002B07DAFB695B42FB61FB685A1CC1
:10396000FA602D221A70FB6907F10C021046194605
:103970000A22FFF769FF30E07B681A1D7A601B6836
:10398000BB6107E0FB685A1CFA60BA69511CB96157
:1039900012781A70BB691B78002BF3D11DE07B688D
:1039A0001A1D7A601B6807F10C02104619460A229C
:1039B000FFF74AFF11E07B681A1D7A601B6807F168
:1039C0000C02104619461022FFF73EFF05E0FB6887
:1039D0005A1CFA6025221A7000BFBB680133BB6015
:1039E00007E0FB685A1CFA60BA68511CB96012788B
:1039F0001A70BB681B78002B7FF479AFFB6800223C
:103A00001A70FB681A467B69D31A18462037BD46E0
:103A100080BD00BF80B485B000AF786039600023FE
:103A2000FB6083E07B681B785BB2252B78D17B68D9
:103A300001337B607B681B785BB2583B202B6AD8D4
:103A400001A252F823F000BF093B0008173B000811
:103A5000173B0008173B0008173B0008173B0008FE
:103A6000173B0008173B0008173B0008173B0008EE
:103A7000173B0008CD3A0008DB3A0008173B000866
:103A8000173B0008173B0008173B0008DB3A00080B
:103A9000173B0008173B0008173B0008173B0008BE
:103AA000173B0008173B0008173B0008173B0008AE
:103AB000173B0008E93A0008173B0008DB3A00080A
:103AC000173B0008173B0008093B00083B6804331C
:103AD0003B60FB680133FB6021E0FB680B33FB605C
:103AE0003B6804333B601AE03B681A1D3A601B6870
:103AF000BB6002E0FB680133FB60BB685A1CBA6024
:103B00001B78002BF6D10AE0FB680833FB603B68AA
:103B100004333B6003E0FB680133FB6000BF02E05D
:103B2000FB680133FB607B6801337B607B681B783B
:103B3000002B7FF477AFFB6818461437BD465DF85D
:103B4000047B70470FB42DE9F04385B000AF00232C
:103B5000FB6007F134033B60386B3968FFF75AFFAD
:103B6000F8606B461E46F9684B1EBB600B461A4652
:103B70004FF000034FEAC30949EA52794FEAC208FD
:103B80000B461A464FF00003DD0045EA5275D4009B
:103B90000B460733DB08DB00ADEB030D6B46003350
:103BA0007B6007F134033B607B681846396B3A68E9
:103BB000FFF794FEF8607B6801201946FA6800F070
:103BC0003BFDF860B546FB6818461437BD46BDE8B6
:103BD000F04304B0704700BF80B586B000AF786096
:103BE000786803F0D9F803463B610023FB600120AD
:103BF00079683A6900F020FDF86001200B49012244
:103C000000F01AFD0346FA681344FB603B695A1C36
:103C1000FB689A4202D100237B6102E04FF0FF3340
:103C20007B617B6918461837BD4680BD04B5000826
:103C300080B584B000AF786039600023FB7306E084
:103C4000FB7B2F4A0021D154FB7B0133FB73FB7BB1
:103C50003E2BF5D92B4B00221A702B48FFF7BCFFE7
:103C600000BF284B1B78002BFBD0264B1B78274826
:103C70001946FFF767FF234B1B78012B1AD1244B02
:103C80001A783B681A700023FB7309E0FB7B7A68A3
:103C90001344FA7B1A498A5C1A70FB7B0133FB736D
:103CA0001B4B1B78FA7B9A42F0D91A48FFF794FF16
:103CB000012321E0134B1B78022B1CD1164B1B78E0
:103CC000013BDAB23B681A700023FB7309E0FB7B0F
:103CD0007A681344FA7B0A498A5C1A70FB7B0133C9
:103CE000FB730D4B1B78FA7B9A42F0D90948FFF71A
:103CF00073FF012300E0002318461037BD4680BD46
:103D0000280F0020890C002008B5000824B5000801
:103D10008B0C00203CB500088A0C002080B588B0D0
:103D200000AF0C20012101F0A5FB1023FB7703233A
:103D3000BB771023BB8307F11C032348194600F00F
:103D400041FF0423BB8307F11C031F48194600F001
:103D500039FF0920012101F08DFB4FF40073BB8175
:103D60004823FB730323BB7307F10C031748194661
:103D700000F028FF0120092101F06CF84FF40073D6
:103D80003B6000233B710C237B710123BB713B46DD
:103D9000184600F077FE17233B720F237B720F2328
:103DA000BB720123FB7207F10803184600F0B0FC58
:103DB0000548042100F0D0FF0348102100F0BEFFA9
:103DC0002037BD4680BD00BF00080140000C014007
:103DD00080B582B000AF02460B46FA71BB71FFF7A7
:103DE0009DFF3F4800F082FBBB79202B01D92023A7
:103DF000BB713C4BFA795A703A4BBA791A70394B0D
:103E000003229A70374B0022DA7000F0CFF9354B5D
:103E10005B78184600F05CFA324B1B78112019468B
:103E200000F0E0F82F4B1B781220194600F0DAF86A
:103E30002C4B1B781320194600F0D4F8294B1B7823
:103E40001420194600F0CEF8264B1B781520194691
:103E500000F0C8F8234B1B781620194600F0C2F872
:103E6000204BDA781F4B9B781046194600F04AFA2F
:103E70000020382100F0B6F801203F2100F0B2F810
:103E800002203F2100F0AEF804204F2100F0AAF8F4
:103E90001C203F2100F0A6F81D20042100F0A2F80C
:103EA0001148102100F058FF0D48E12100F028FBD7
:103EB0000D48102100F042FF0B48102100F04CFF8C
:103EC0000748E22100F01CFB0748102100F036FFF4
:103ED00000F0D6F8012318460837BD4680BD00BF64
:103EE00000300140240F00200008014080B582B05E
:103EF00000AF78600748042100F02EFF0B2079689E
:103F0000052200F095F80348042100F017FF083758
:103F1000BD4680BD0008014080B582B000AF78602A
:103F20000A207968052200F083F8102079680522BC
:103F300000F07EF80837BD4680BD00BF80B584B074
:103F400000AF13460246FA710A46BA717B71FB79DB
:103F5000184600F023F80346FB737B79002B09D049
:103F6000BB79012202FA03F3DAB2FB7B1343DBB223
:103F7000FB730AE0BB79012202FA03F3DBB2DB43F5
:103F8000DAB2FB7B1340DBB2FB73FA79FB7B1046A2
:103F9000194600F027F81037BD4680BD80B584B0C3
:103FA00000AF0346FB710D48102100F0D5FEFB79F0
:103FB00003F01F030A48194600F0A2FA0848FF213F
:103FC00000F09EFA0346FB730448102100F0B6FE91
:103FD000FB7B18461037BD4680BD00BF000801407E
:103FE0000030014080B582B000AF02460B46FA7146
:103FF000BB710D48102100F0AFFEFB7903F01F03E9
:10400000DBB243F02003DBB20848194600F078FA2F
:10401000BB790648194600F073FA0348102100F0F6
:104020008DFE0837BD4680BD0008014000300140CC
:1040300080B582B000AF396013460246FA71BB7199
:104040000D48102100F088FEFB7903F01F03DBB25E
:1040500043F02003DBB20948194600F051FABB795E
:10406000064839681A4600F097FA0348102100F014
:1040700065FE0837BD4680BD0008014000300140A4
:1040800080B500AF1348102100F066FE1248E2210F
:1040900000F036FA0F48102100F050FE07200421EE
:1040A0000122FFF74BFF072005210122FFF746FF02
:1040B000072006210122FFF741FF0648042100F0F6
:1040C0004BFE00203B21FFF78DFF0248042100F04A
:1040D00035FE80BD000801400030014080B582B04F
:1040E00000AF78600C48102100F036FE0B486121CB
:1040F00000F006FA0A4B1B78084879687A6800F0E5
:1041000029FA0548102100F019FE07204021FFF789
:1041100069FF0837BD4680BD0008014000300140FE
:10412000240F002080B582B000AF00F025F80346D0
:10413000FB71FB7903F04003002B01D0012307E062
:1041400000F00AF80346002B14BF00230123DBB262
:1041500018460837BD4680BD80B582B000AF172035
:10416000FFF71CFF0346FB71FB7903F00103DBB291
:1041700018460837BD4680BD80B582B000AF0948FB
:10418000102100F0E9FD0848FF2100F0B9F90346CD
:10419000FB710448102100F0D1FDFB791846083767
:1041A000BD4680BD000801400030014080B582B0AE
:1041B00000AF00200821FFF715FF01203F21FFF786
:1041C00011FF02200321FFF70DFF03200321FFF75A
:1041D00009FF04200321FFF705FF05200221FFF757
:1041E00001FF06200E21FFF7FDFE07200E21FFF73D
:1041F000F9FE08200021FFF7F5FE09200021FFF756
:10420000F1FEE7233B70E7237B70E723BB70E723D6
:10421000FB70E7233B713B460A2019460522FFF756
:1042200007FFC2233B70C2237B70C223BB70C22333
:10423000FB70C2233B713B460B2019460522FFF75A
:10424000F7FE0C20C321FFF7CDFE0D20C421FFF7A0
:10425000C9FE0E20C521FFF7C5FE0F20C621FFF7BE
:10426000C1FEE7233B70E7237B70E723BB70E723A6
:10427000FB70E7233B713B46102019460522FFF7F0
:10428000D7FE11200021FFF7ADFE12200021FFF71D
:10429000A9FE13200021FFF7A5FE14200021FFF73F
:1042A000A1FE15200021FFF79DFE16200021FFF73B
:1042B00099FE17201121FFF795FE1C200021FFF722
:1042C00091FE1D200021FFF78DFE0837BD4680BD01
:1042D00080B582B000AF0346FB71FB797D2B0CD813
:1042E000074B5B78FA799A4207D0054BFA795A70F6
:1042F000FB7905201946FFF775FE0837BD4680BDDE
:10430000240F002080B584B000AF02460B46FA713E
:10431000BB710023FB731A4BFA79DA70184BBA7928
:104320009A70FB79002B04D1FB7B43F00803FB73ED
:1043300006E0FB79022B03D1FB7B43F02003FB73E8
:10434000BB79032B04D1FB7B43F00603FB730EE028
:10435000BB79022B04D1FB7B43F00403FB7306E023
:10436000BB79012B03D1FB7B43F00203FB73FB7B87
:1043700006201946FFF736FE1037BD4680BD00BF48
:10438000240F002080B582B000AF4C48FFF7DAFB65
:104390004FF4007000F0E4FB0346002B00F08B802C
:1043A0004FF4007000F000FC4548042100F0D4FCFC
:1043B0004448FFF7C7FBFFF7DFFE034603F0400367
:1043C000002B78D0FFF7AEFE0346002B73D03E489B
:1043D000FFF784FE3C4B1B783C481946FFF7B2FBC5
:1043E000394B1B78012B17D10023FB710AE0FB79B5
:1043F0001E33FA7901323449895C354AD154FB794C
:104400000133FB71FA79334B1B781F3B9A42EEDD87
:10441000314B02221A7049E02B4B1B78002B21D123
:10442000294B5A782B4B1A702A4B1B782B4819466C
:10443000FFF788FB0023FB7110E0FB79FA79023269
:104440002149895C224AD154FB79214AD35C244812
:104450001946FFF777FBFB790133FB71FB791E2BC4
:10446000EBD923E0184B1B78022B1FD1164B5A783F
:104470001C4B1A700023FB7110E0FB79FA790232B1
:104480001149895C124AD154FB79114AD35C144812
:104490001946FFF757FBFB790133FB71114B1B7872
:1044A000FA799A42E9D90C4B01221A700E48FFF7AB
:1044B00093FBFFF7E5FD0837BD4680BD50B500080A
:1044C0000008014074B50008BC0E002088B5000843
:1044D000280F00208A0C0020890C0020ACB50008B1
:1044E000D0B500088B0C0020D8B5000880B582B08C
:1044F00000AF78607868FCF79FF90837BD4680BD4B
:1045000080B582B000AF78600B46FB70FB789AB242
:104510007B689A8100BF7868022101F067F8034642
:10452000002BF8D000BF7868012101F05FF8034646
:10453000002BF8D000BF7868802101F057F80346BF
:10454000002BF8D17B689B899BB2DBB218460837F9
:10455000BD4680BD90B587B000AFF860B9607A60A5
:104560007B800023FB750FE0FB7D7A68D418FB7D10
:10457000BA6813441B78F8681946FFF7C1FF034671
:104580002370FB7D0133FB75FB7D9BB27A889A42D9
:10459000EAD81C37BD4690BD80B586B000AFF86044
:1045A000B9601346FB800023FB820AE0FB8ABA68ED
:1045B00013441B78F8681946FFF7A2FFFB8A013302
:1045C000FB82FA8AFB889A42F0D31837BD4680BD39
:1045D00080B584B000AF7860144B1B68002B02D10B
:1045E000124B134A1A60114B1B68FB607B68033344
:1045F00023F003037B600D4B1A687B681A440D4B54
:104600009A4207D902F08AF803460C221A604FF04A
:10461000FF3306E0054B1A687B681A44034B1A60A7
:10462000FB6818461037BD4680BD00BF8C0C0020CB
:104630006C0F0020004C002080B584B000AFF86003
:10464000B9607A60FB68012B05D1B868796800F021
:1046500009F8034601E04FF0FF3318461037BD4616
:1046600080BD00BF80B485B000AF786039601C4B5E
:104670001B68002B02D11A4B01221A600023FB6039
:1046800023E0184B1B6803F00103002B01D1FB68EA
:1046900020E0154B1B6803F00103002B01D1FB68E0
:1046A00018E000BF4FF060431B78DBB2DBB203F0D1
:1046B0000103002BF6D04FF060427B68591C7960F3
:1046C0001B781370FB680133FB60FA683B689A4201
:1046D000D7DB3B6818461437BD465DF8047B70474E
:1046E000900C0020800E00E0000E00E080B483B04B
:1046F00000AF7860054A7B6843F0BF6343F4003342
:10470000D3600C37BD465DF8047B704700ED00E0D8
:1047100080B487B000AF786000237B6100233B61E9
:104720000F23FB607B68DB78002B38D0264BDB68DF
:10473000DB4303F4E0631B0A7B617B69C3F1040381
:104740003B617B69FA6822FA03F3FB607B685B7864
:104750001A463B6902FA03F37B617B689B781A4631
:10476000FB6813407A6913437B617B691B017B61A2
:1047700016497B681B787A69D2B20B4483F8002310
:10478000124B7A6812785209D2B27968097801F02E
:104790001F01012000FA01F143F822100EE00B4B3B
:1047A0007A6812785209D2B27968097801F01F014B
:1047B000012000FA01F1203243F822101C37BD46D7
:1047C0005DF8047B704700BF00ED00E000E100E011
:1047D00080B483B000AF78607B681A684FF6FE73D0
:1047E00013407A6813607B6800221A607B6800229D
:1047F0005A607B6800229A607B680022DA607A68DF
:10480000434B9A4206D1434B424A526842F00F0250
:104810005A6077E07A68404B9A4206D13D4B3D4A58
:10482000526842F0F0025A606CE07A683B4B9A4260
:1048300006D1384B374A526842F470625A6061E0E0
:104840007A68374B9A4206D1324B324A526842F468
:1048500070425A6056E07A68324B9A4206D12D4B2C
:104860002C4A526842F470225A604BE07A682E4B10
:104870009A4206D1274B274A526842F470025A6086
:1048800040E07A68294B9A4206D1224B214A52686D
:1048900042F070625A6035E07A68254B9A4206D140
:1048A000244B244A526842F00F025A602AE07A6888
:1048B000214B9A4206D11F4B1E4A526842F0F00229
:1048C0005A601FE07A681D4B9A4206D1194B194A6B
:1048D000526842F470625A6014E07A68184B9A4247
:1048E00006D1144B134A526842F470425A6009E0F0
:1048F0007A68144B9A4205D10E4B0E4A526842F424
:1049000070225A600C37BD465DF8047B704700BFCB
:1049100008000240000002401C000240300002403B
:1049200044000240580002406C00024080000240F7
:1049300008040240000402401C040240300402400B
:10494000440402405804024080B485B000AF78604F
:1049500039600023FB607B681B68FB60FB6823F405
:10496000FF4323F07003FB603B689A683B681B6A57
:104970001A433B681B691A433B685B691A433B68EF
:104980009B691A433B68DB691A433B685B6A1A43BD
:104990003B689B6A1343FA681343FB607B68FA68C1
:1049A0001A603B68DA687B685A603B681A687B6803
:1049B0009A603B685A687B68DA601437BD465DF8D8
:1049C000047B704780B483B000AF78600B46FB7007
:1049D000FB78002B06D07B681B6843F001027B68E4
:1049E0001A6006E07B681A684FF6FE7313407A6817
:1049F00013600C37BD465DF8047B704780B485B00A
:104A000000AF78600023FB730023BB607B6803F07A
:104A10008053002B03D00C4B1B68BB6002E00B4B98
:104A20001B68BB60BA687B681340002B02D001236F
:104A3000FB7301E00023FB73FB7B18461437BD4674
:104A40005DF8047B704700BF000402400000024094
:104A500080B483B000AF78607B6803F08053002B94
:104A600003D0064B7A685A6002E0054B7A685A60B8
:104A70000C37BD465DF8047B704700BF0004024060
:104A80000000024080B485B000AF78600023FB6076
:104A9000324BFB607B689B79002B4DD02F4B2F4A0C
:104AA00011687A681268D2430A401A602B4B2B4A6D
:104AB00051687A681268D2430A405A607B681B7951
:104AC000FA681344FB60FB68FA6811687A68126838
:104AD0000A431A60214B214A91687A681268D243CE
:104AE0000A409A601D4B1D4AD1687A681268D24309
:104AF0000A40DA607B685B79102B0ED1174B174A9E
:104B000091687A6812680A439A60144B134AD16814
:104B10007A6812680A43DA601BE0104BFB607B681E
:104B20005B79FA681344FB60FB68FA6811687A687D
:104B300012680A431A600CE07B681B79FA68134418
:104B4000FB60FB68FA6811687A681268D2430A4011
:104B50001A601437BD465DF8047B704700040140BD
:104B600080B485B000AF78600023FB730023BB6086
:104B70000C4B1A687B681340BB600A4B5A697B6810
:104B80001340002B05D0BB68002B02D00123FB7320
:104B900001E00023FB73FB7B18461437BD465DF82C
:104BA000047B70470004014080B483B000AF78609C
:104BB000034B7A685A610C37BD465DF8047B704739
:104BC0000004014080B489B000AF786039600023F0
:104BD000FB6100233B610023BB610023FB600023DA
:104BE0007B610023BB603B68DB7803F00F03FB6154
:104BF0003B68DB7803F01003002B04D03B689B7804
:104C0000FA691343FB613B681B88DBB2002B44D07D
:104C10007B681B687B610023BB6138E0BB690122B4
:104C200002FA03F3FB603B681B881A46FB681340DB
:104C30003B613A69FB689A4226D1BB699B00FB60E5
:104C4000FB680F2202FA03F3BB60BB68DB437A699F
:104C500013407B61FB68FA6902FA03F37A69134334
:104C60007B613B68DB78282B05D1BB6901229A4028
:104C70007B685A6108E03B68DB78482B04D1BB694C
:104C800001229A407B681A61BB690133BB61BB6931
:104C9000072BC3D97B687A691A603B681B88FF2B96
:104CA00046D97B685B687B610023BB613AE0BB69E6
:104CB0000833012202FA03F3FB603B681B881A46A3
:104CC000FB6813403B613A69FB689A4227D1BB6994
:104CD0009B00FB60FB680F2202FA03F3BB60BB681A
:104CE000DB437A6913407B61FB68FA6902FA03F3DC
:104CF0007A6913437B613B68DB78282B05D1BB695C
:104D0000083301229A407B685A613B68DB78482B64
:104D100005D1BB69083301229A407B681A61BB69DF
:104D20000133BB61BB69072BC1D97B687A695A60C3
:104D30002437BD465DF8047B704700BF80B483B064
:104D400000AF78600B467B807A887B681A610C37ED
:104D5000BD465DF8047B704780B483B000AF7860D7
:104D60000B467B807A887B685A610C37BD465DF8BC
:104D7000047B704780B487B000AF78600B46FB704F
:104D800000233B610023FB6000237B610023BB60A9
:104D90007B68002B03DA2E4BDB697B6102E02C4B36
:104DA0005B687B617B6803F470231B0CBB607B68D2
:104DB0009BB23B617B6803F44013B3F5401F0AD1FB
:104DC0007B6923F070637B61214B214A526822F09A
:104DD00070625A6021E07B6803F48013002B0ED0D0
:104DE000BB68032202FA03F3FB60FB68DB437A69CA
:104DF00013407B617B6943F070637B610DE07B68EE
:104E00005B0D1B013A6902FA03F3DB437A69134035
:104E10007B617B6943F070637B61FB78002B08D07A
:104E20007B685B0D1B013A6902FA03F37A6913434D
:104E30007B617B68002B03DA054B7A69DA6102E05B
:104E4000034B7A695A601C37BD465DF8047B704796
:104E50000000014090B484B000AF02460B46FA71E6
:104E6000BB710023FB60BB7903F003039B000F229F
:104E700002FA03F3FB60154BBA799208D2B21349D8
:104E8000B8798008C0B2023051F82000F968C943EF
:104E90000140023243F822100C4BBA799208D2B288
:104EA0000A49B8798008C0B2023051F82000FC7974
:104EB000B97901F00301890004FA01F101430232DA
:104EC00043F822101037BD4690BC704700000140E7
:104ED00080B58AB000AF786039600023FB8400237E
:104EE0007B840423BB84574BFB617B689B88FB84DA
:104EF000FB8C23F03F03FB8407F10803184600F006
:104F0000E9F93B69FB61FA694F4BA3FB02139B0C68
:104F10007B84FA8C7B8C1343FB847B68FA8C9A80AD
:104F20007B681B889BB223F001039AB27B681A80CE
:104F30000023FB843B681A68444B9A4215D83B68AF
:104F40001B685B00FA69B2FBF3F3BB84BB8C032BD9
:104F500001D80423BB84FA8CBB8C1343FB847B8C69
:104F600001339AB27B681A8440E03B68DA884BF6DA
:104F7000FF739A4209D13B681A6813465B001344D9
:104F8000FA69B2FBF3F3BB840EE03B681A68134680
:104F90009B0013449A001344FA69B2FBF3F3BB84F9
:104FA000BB8C43F48043BB84BB8CC3F30B03002B4B
:104FB00003D1BB8C43F00103BB84BA8CFB8C13433D
:104FC0009BB26FEA43436FEA5343FB847B8C4FF4FD
:104FD000967202FB03F31E4A82FB03129211DB1747
:104FE000D31A9BB201339AB27B681A847B68FA8C1D
:104FF0009A837B681B889BB243F001039AB27B685B
:105000001A807B681B88FB84FB8C23F4816323F06C
:105010000203FB843B689A883B685B8913439AB21E
:10502000FB8C1343FB847B68FA8C1A803B689A895B
:105030003B681B8913439AB27B681A812837BD46A7
:1050400080BD00BF00127A0083DE1B43A0860100F2
:10505000D34D621080B483B000AF78600B46FB7014
:10506000FB78002B08D07B681B889BB243F00103C0
:105070009AB27B681A8007E07B681B889BB223F09A
:1050800001039AB27B681A800C37BD465DF8047B39
:10509000704700BF80B483B000AF78600B46FB70F0
:1050A000FB78002B08D07B689B889BB243F400639D
:1050B0009AB27B689A8007E07B689B889BB223F456
:1050C00000639AB27B689A800C37BD465DF8047B1A
:1050D000704700BF80B483B000AF78600B46FB70B0
:1050E000FB78002B08D07B681B889BB243F480734D
:1050F0009AB27B681A8007E07B681B889BB223F416
:1051000080739AB27B681A800C37BD465DF8047BC9
:10511000704700BF80B483B000AF78600B46FB706F
:10512000FB78002B08D07B681B889BB243F400738C
:105130009AB27B681A8007E07B681B889BB223F4D5
:1051400000739AB27B681A800C37BD465DF8047B09
:10515000704700BF80B483B000AF78600B46FB702F
:10516000FB78002B08D07B681B889BB243F48063DC
:105170009AB27B681A8007E07B681B889BB223F495
:1051800080639AB27B681A800C37BD465DF8047B59
:10519000704700BF80B483B000AF78600B46FB70EF
:1051A000FB789AB27B681A820C37BD465DF8047BA7
:1051B000704700BF80B483B000AF786013460A46E2
:1051C000FA70BB70BB78002B04D0FB7843F001036E
:1051D000FB7003E0FB7823F00103FB70FB789AB2CD
:1051E0007B681A820C37BD465DF8047B704700BFB0
:1051F00080B487B000AF7860396000233B61002342
:10520000FB600023BB600023FB757B689B8A9BB21D
:10521000FB607B681B8B9BB2BB60BB681B04BB60E5
:10522000FA68BB68134323F07F433B613A693B68EC
:105230001A403B689A4202D10123FB7501E000232A
:10524000FB75FB7D18461C37BD465DF8047B704737
:1052500080B487B000AF786039600023FB7500230D
:105260003B610023FB607B68FB603B681B0F3B617D
:105270003B6823F07F433B603B69002B03D0FB6816
:105280001433FB6005E03B681B0C3B60FB68183384
:10529000FB60FB681A683B681340002B02D00123B7
:1052A000FB7501E00023FB75FB7D18461C37BD46EE
:1052B0005DF8047B704700BF80B483B000AF7860B6
:1052C000034B7A681A600C37BD465DF8047B704763
:1052D000D800424280B487B000AF786000237B6181
:1052E00000233B610023FB600023BB604D4B5B68E8
:1052F00003F00C037B617B69042B07D0082B09D0DA
:10530000002B34D17B68484A1A6034E07B68464AF7
:105310001A6030E0434B5B6803F470133B61414B10
:105320005B6803F48033FB603B699B0C02333B6199
:10533000FB68002B06D13B693C4A02FB03F27B6809
:105340001A6013E0374B5B6803F40033002B06D080
:105350003B69364A02FB03F27B681A6006E03B6950
:10536000314A02FB03F27B681A6004E003E07B68C9
:105370002D4A1A6000BF2B4B5B6803F0F0037B6182
:105380007B691B097B612A4A7B6913441B78DBB26A
:10539000BB607B681A68BB68DA407B685A60214B47
:1053A0005B6803F4E0637B617B691B0A7B61204AD5
:1053B0007B6913441B78DBB2BB607B685A68BB68AF
:1053C000DA407B689A60174B5B6803F460537B613B
:1053D0007B69DB0A7B61164A7B6913441B78DBB26D
:1053E000BB607B685A68BB68DA407B68DA600D4B4B
:1053F0005B6803F440437B617B699B0B7B610D4AD7
:105400007B6913441B78DBB2BB607B68DA68BB68DE
:10541000B2FBF3F27B681A611C37BD465DF8047B72
:10542000704700BF0010024000127A0000093D00E2
:10543000EC000020FC00002080B483B000AF786056
:105440000B46FB70FB78002B06D0094B084A5169CC
:105450007A680A435A6106E0054B054A51697A6841
:10546000D2430A405A610C37BD465DF8047B704751
:105470000010024080B483B000AF78600B46FB7030
:10548000FB78002B06D0094B084A91697A680A43D9
:105490009A6106E0054B054A91697A68D2430A4051
:1054A0009A610C37BD465DF8047B704700100240DE
:1054B00080B483B000AF78600B46FB70FB78002BA4
:1054C00006D0094B084AD1697A680A43DA6106E0D6
:1054D000054B054AD1697A68D2430A40DA610C3734
:1054E000BD465DF8047B70470010024080B485B073
:1054F00000AF786039600023FB817B681B88FB81EB
:10550000FB8903F44153FB813B681A883B685B8845
:1055100013439AB23B689B8813439AB23B68DB887B
:1055200013439AB23B681B8913439AB23B685B8969
:1055300013439AB23B689B8913439AB23B68DB8959
:1055400013439AB2FB891343FB817B68FA891A8063
:105550007B689B8B9BB223F400639AB27B689A832F
:105560003B681A8A7B681A821437BD465DF8047B53
:10557000704700BF80B483B000AF78600B46FB700B
:10558000FB78002B08D07B681B889BB243F040035C
:105590009AB27B681A8007E07B681B889BB223F075
:1055A00040039AB27B681A800C37BD465DF8047BD5
:1055B000704700BF80B483B000AF78600B467B803B
:1055C0007B687A889A810C37BD465DF8047B70470A
:1055D00080B483B000AF78607B689B899BB218462B
:1055E0000C37BD465DF8047B704700BF80B485B0C2
:1055F00000AF78600B467B800023FB737B681B89C0
:105600009AB27B8813409BB2002B02D00123FB731C
:1056100001E00023FB73FB7B18461437BD465DF8A1
:10562000047B704780B485B000AF78603960002398
:10563000FB817B681B88FB817A682E4B9A4213D0D2
:105640007A682D4B9A420FD07B68B3F1804F0BD014
:105650007A682A4B9A4207D07A68294B9A4203D03B
:105660007A68284B9A4208D1FB8923F07003FB81AA
:105670003B685A88FB891343FB817A68224B9A4224
:105680000CD07A68214B9A4208D0FB8923F44073EE
:10569000FB813B68DA88FB891343FB817B68FA89CD
:1056A0001A803B689A887B689A853B681A887B6871
:1056B0001A857A680F4B9A420FD07A680E4B9A423D
:1056C0000BD07A68124B9A4207D07A68114B9A42F3
:1056D00003D07A68104B9A4204D13B681B7A1A4671
:1056E0007B681A867B6801229A821437BD465DF872
:1056F000047B7047002C014000340140000400404E
:1057000000080040000C0040001000400014004061
:1057100000400140004401400048014080B483B093
:1057200000AF78607B684FF6FF729A807B6800223A
:105730001A807B680022DA807B6800225A807B68AE
:1057400000221A720C37BD465DF8047B704700BF1B
:1057500080B483B000AF78600B46FB70FB78002B01
:1057600008D07B681B889BB243F080039AB27B68A9
:105770001A8007E07B681B889BB223F080039AB2F3
:105780007B681A800C37BD465DF8047B704700BF0C
:1057900080B485B000AF78600B467B800023FB733C
:1057A0000023BB8100237B817B681B8A9AB27B88A4
:1057B0001340BB817B689B899AB27B8813407B81B5
:1057C000BB89002B05D07B89002B02D00123FB7302
:1057D00001E00023FB73FB7B18461437BD465DF8E0
:1057E000047B704780B483B000AF78600B467B8049
:1057F0007B88DB439AB27B681A820C37BD465DF822
:10580000047B704780B582B000AF154A154BD31AA0
:105810009B103B6000237B6007E0124B7A6853F8D3
:10582000223098477B6801337B607A683B689A42F4
:10583000F3D30D4A0D4BD31A9B103B6000237B60C2
:1058400007E00A4B7A6853F8223098477B680133A7
:105850007B607A683B689A42F3D30837BD4680BDC7
:10586000EC010008E8010008EC010008EC01000868
:1058700080B582B000AF0B4A0B4BD31A9B103B6034
:105880003B687B6008E07B685A1E074B53F8223068
:1058900098477B68013B7B607B68002BF3D108371E
:1058A000BD4680BDEC010008EC01000880B483B067
:1058B00000AF7860FEE700BF80B500AF154B154A1A
:1058C000126842F001021A60124A124B5968124BD8
:1058D0000B4053600F4A0F4B1B6823F0847323F473
:1058E000803313600B4B0B4A126822F480221A603B
:1058F000084B084A526822F4FE025A60054B4FF4E6
:105900001F029A6000F00CF8044B4FF000629A609E
:1059100080BD00BF001002400000FFF800ED00E075
:1059200080B500AF00F002F880BD00BF80B483B046
:1059300000AF00237B6000233B603A4B394A12687A
:1059400042F480321A60374B1B6803F400333B602B
:105950007B6801337B603B68002B03D17B68B3F528
:10596000A06FF0D12F4B1B6803F40033002B02D043
:1059700001233B6001E000233B603B68012B4BD1DE
:10598000294B294A126842F010021A60264B264A17
:10599000126822F003021A60234B234A126842F075
:1059A00002021A601F4B1F4A52685A601D4B1D4A63
:1059B00052685A601B4B1B4A526842F480625A601C
:1059C000184B184A526822F47C125A60154B154A3B
:1059D000526842F4E8125A60124B124A126842F0BE
:1059E00080721A6000BF0F4B1B6803F00073002B1E
:1059F000F9D00C4B0B4A526822F003025A60094B53
:105A0000084A526842F002025A6000BF054B5B68C8
:105A100003F00C03082BF9D10C37BD465DF8047B6D
:105A2000704700BF001002400020024081F000419A
:105A300002E000BF83F0004330B54FEA41044FEA73
:105A4000430594EA050F08BF90EA020F1FBF54EA0E
:105A5000000C55EA020C7FEA645C7FEA655C00F0AA
:105A6000E2804FEA5454D4EB5555B8BF6D420CDD7B
:105A70002C4480EA020281EA030382EA000083EAFE
:105A8000010180EA020281EA0303362D88BF30BD9E
:105A900011F0004F4FEA01314FF4801C4CEA1131F4
:105AA00002D0404261EB410113F0004F4FEA033353
:105AB0004CEA133302D0524263EB430394EA050FDE
:105AC00000F0A780A4F10104D5F1200E0DDB02FA4D
:105AD0000EFC22FA05F2801841F1000103FA0EF2E1
